:020000040800F2
:1000000000000220DD4800082949000829490008AD
:100010002949000829490008294900080000000072
:100020000000000000000000000000002949000856
:100030002949000800000000294900082949000852
:1000400029490008294900082949000829490008C8
:1000500029490008294900082949000829490008B8
:1000600029490008294900082949000829490008A8
:100070002949000829490008294900082949000898
:100080002949000829490008294900080000000002
:1000900000000000000000000000000029490008E6
:1000A0002949000829490008294900082949000868
:1000B0002949000829490008294900082949000858
:1000C0002949000829490008294900082949000848
:1000D00029490008294900082949000800000000B2
:1000E00029490008294900082949000800000000A2
:1000F0000000000000000000000000002949000886
:100100000000000029490008294900082949000881
:1001100000000000000000000000000000000000DF
:1001200029490008294900082949000829490008E7
:100130002949000800000000000000000000000045
:100140000000000000000000000000002949000835
:1001500029490008294900082949000829490008B7
:10016000294900082949000800000000000000009B
:10017000000000000000000000000000000000007F
:1001800000000000294900080000000000000000F5
:10019000294900082949000810B5054C237833B9CE
:1001A000044B13B10448AFF300800123237010BD4A
:1001B0008804002000000000E4E9020808B5034BB1
:1001C0001BB103490348AFF3008008BD00000000E5
:1001D0008C040020E4E90208154B002B08BF134BE8
:1001E0009D46A3F5803A00218B460F461348144ADA
:1001F000121A1FF0F0FF0F4B002B00D098470E4B48
:10020000002B00D098470020002104000D000D486D
:10021000002802D00C48AFF300801FF0B5FD20008D
:10022000290006F0FFF81FF013FA00BF00000800D5
:1002300000000220000000000000000088040020F0
:10024000601E0020000000000000000008B504F05F
:1002500067FE002108BD0000044B01221A60044B18
:100260005A6A044B1A6000225A607047A4040020A6
:10027000000C0040A8040020034B1A68034B5A628C
:10028000034B00221A607047A8040020000C0040B5
:10029000A40400200A6802604A6842608A6882609A
:1002A000CA68C2600A690261704702680B689A42B4
:1002B00011D142684B689A420DD182688B689A428C
:1002C00009D1C268CB689A4205D100690B69C31A8B
:1002D0005842584170470020704708B5FFF7E5FFC6
:1002E00080F00100C0B208BD0A6802608A688260BE
:1002F0004A684260CA68C2600A690261704702685F
:100300000B689A4216DB17D142684B689A4211DBA0
:1003100012D182688B689A420CDB0DD1C268CB681F
:100320009A4207DB08D100690B699842ACBF0020F4
:1003300001207047012070470020704770B50C689D
:100340009C420BDB94FBF3F415682C4414600C689E
:1003500094FBF3F203FB12430B6070BD002CFCDA3C
:1003600094FBF3F686EAE675A5EBE67503FB164407
:10037000002C0CBF2C466C1C15682D1B15600A68E0
:1003800004FB0323E8E770B5044600F10C052A4698
:1003900004F108064FF47A7300F11001FFF7CEFF65
:1003A000324629464FF47A73251D2046FFF7C6FFD3
:1003B0002A4631463C232046FFF7C0FF3C23224615
:1003C00029462046FFF7BAFF204670BD10B547F614
:1003D000FF723B23C0E90023836040F2E733044609
:1003E000C0E90333FFF7CFFF204610BD2DE9F043EE
:1003F0008BB00E464FF03B08044647F6FF7940F2BB
:10040000E73768461546CDE90098CDF80880CDE974
:100410000377FFF7B8FF69463046FFF746FF80B124
:100420003B2347F6FF72C4E90023A36040F2E733A1
:10043000C4E903332046FFF7A6FF20460BB0BDE812
:10044000F08305A8CDE90598CDE907870997FFF75F
:100450009AFF05A92846FFF728FF0028E0D12B685E
:1004600037686868A968EA682D691F44736818448A
:10047000B3681944F3681A443369CDE905702B4415
:1004800005A8CDE907120993FFF77DFF05A92046CE
:10049000FFF700FFD1E72DE9F0438BB00E464FF098
:1004A0003B08044647F6FF7940F2E73768461546B1
:1004B000CDE90098CDF80880CDE90377FFF763FF19
:1004C00069463046FFF7F1FE80B13B2347F6FF72E5
:1004D000C4E90023A36040F2E733C4E903332046B4
:1004E000FFF751FF20460BB0BDE8F08305A8CDE92A
:1004F0000598CDE907870997FFF745FF05A9284625
:10050000FFF7D3FE0028E0D12B6837686868A96838
:10051000EA682D69FF1A7368181AB368591AF368E4
:100520009A1A3369CDE905705B1B05A8CDE907125E
:100530000993FFF728FF05A92046FFF7ABFED1E797
:100540002DE9D04F16461F4604461E4A002330466A
:10055000394628F0ABFB60602046FFF714FF626865
:10056000184B5343B6EB030867EBE379164A0023B5
:100570004046494628F09AFBA0602046FFF703FF5B
:10058000A268114B5343B8EB030A69EBE37B4FF4CA
:100590007A7200235046594628F088FBE0602046D6
:1005A000FFF7F1FEE2684FF47A735343BAEB0306A8
:1005B00026612046FFF7E7FE2046FFF7E4FE2046CF
:1005C000BDE8D08F0087930340420F0030B59FB045
:1005D0003B2347F6FF720D46CDE9052307930446FA
:1005E00040F2E73305A8CDE90833FFF7CCFE05A9B3
:1005F0002846FFF75AFE20B3184905A821F01FFA34
:1006000004F10803236005A822F08AF905AB0F283E
:1006100003EB0005049007D9002204A920460DF041
:10062000BFFD049B2060A3602A4605A920680DF049
:1006300044FE049B2268636000212046D1541FB011
:1006400030BD2B690293EB680193AB680093D5E949
:100650000023034905A821F057F9D1E7E48F0208E8
:10066000E88F0208D0B50446FFF7F0FD084BD3E948
:1006700000670023821BC4E90033C4E9023323610D
:10068000204661EB0703FFF75BFF2046D0BD00BFAC
:10069000C804002008B5FFF7D9FD024BC3E90001EB
:1006A00008BD00BFC804002004480023C0E900338F
:1006B000C0E902330361FFF766BE00BFB00400204B
:1006C00083681A6843681A4214BF012000207047EB
:1006D0007047704770477047704770477047704762
:1006E0007047704770477047704770477047704752
:1006F0007047704770470020704700207047002007
:10070000704770477047704708B503481146FFF7B8
:10071000D7FF0860012008BDD00500207047000009
:1007200008B503481146FFF7CBFF0860012008BD5C
:10073000C00500207047000008B503481146FFF7C8
:10074000BFFF0860012008BDB00500207047000011
:1007500008B503481146FFF7B3FF0860012008BD44
:10076000A00500207047000008B503481146FFF7B8
:10077000A7FF0860012008BD900500207047000019
:1007800008B505481146FFF79BFF18B901230B6018
:10079000012008BD0023FAE7D404002070470000C0
:1007A00008B505481146FFF78BFF18B901230B6008
:1007B000012008BD0023FAE7E404002070477047D9
:1007C00008B505481146FFF77BFF18B901230B60F8
:1007D000012008BD0023FAE704050020704700004F
:1007E00008B505481146FFF76BFF18B901230B60E8
:1007F000012008BD0023FAE714050020704700001F
:1008000008B509481146FFF75BFF024650B9074B90
:10081000187820B901201870C8230B6008BD1A7021
:10082000C923FAE70020F9E7E00500208C05002045
:10083000704703685B68184703685B68184710B522
:10084000044605F030FE204610BD05F02CBE10B564
:10085000044605F028FE204610BD05F024BE10B564
:10086000044605F020FE204610BD05F01CBE10B564
:10087000044605F018FE204610BD10B5044605F0EC
:1008800012FE204610BD10B5044605F00CFE2046B1
:1008900010BD10B5044605F006FE204610BD10B58B
:1008A000044605F000FE204610BD10B5044605F0D4
:1008B000FAFD204610BD10B5044605F0F4FD2046B3
:1008C00010BD10B5044605F0EEFD204610BD10B574
:1008D000044605F0E8FD204610BD10B5044605F0BD
:1008E000E2FD204610BD10B5044605F0DCFD2046B3
:1008F00010BD10B5044605F0D6FD204610BD10B55C
:10090000044605F0D0FD204610BD10B5044605F0A4
:10091000CAFD204610BD10B5044605F0C4FD2046B2
:1009200010BD10B5044605F0BEFD204610BD05F013
:10093000BABD05F0B8BD05F0B6BD05F0B4BD05F013
:10094000B2BD05F0B0BD05F0AEBD05F0ACBD05F023
:10095000AABD05F0A8BD05F0A6BD05F0A4BD05F033
:10096000A2BD05F0A0BD05F09EBD05F09CBD90F8B0
:10097000A031032B03D0042B03D0012B09D1022378
:1009800000E0002380F8A03100F51C713030FFF743
:10099000ABBC704710B504460846034906F0A8F8FA
:1009A00008B104F10C0010BDF494020810B504461F
:1009B0000846034906F09CF808B104F10C0010BD8C
:1009C000F494020810B504460846034906F090F86E
:1009D00008B104F10C0010BDF494020810B50446EF
:1009E0000846034906F084F808B104F10C0010BD74
:1009F000F494020810B504460846034906F078F856
:100A000008B104F10C0010BDF494020810B50446BE
:100A10000846034906F06CF808B104F10C0010BD5B
:100A2000F494020810B504460846034906F060F83D
:100A300008B104F10C0010BDF494020810B504468E
:100A40000846034906F054F808B104F10C0010BD43
:100A5000F494020810B504460846034906F048F825
:100A600008B104F10C0010BDF494020810B504465E
:100A70000846034906F03CF808B104F10C0010BD2B
:100A8000F494020810B504460846034906F030F80D
:100A900008B104F10C0010BDF494020810B504462E
:100AA0000846034906F024F808B104F10C0010BD13
:100AB000F494020810B504460846034906F018F8F5
:100AC00008B104F10C0010BDF494020810B50446FE
:100AD0000846034906F00CF808B104F10C0010BDFB
:100AE000F494020810B504460846034906F000F8DD
:100AF00008B104F10C0010BDF494020810B50446CE
:100B00000846034905F0F4FF08B104F10C0010BDDC
:100B1000F4940208014803F02BBE00BFDDA10208D7
:100B2000014803F025BE00BFE6A1020810B5303130
:100B30000446FFF7AFFB204610BD10B53031044628
:100B4000FFF7A8FB204610BD10B50548144603F07A
:100B5000C2FE18B901232360012010BD0023FAE76B
:100B6000D404002090F8F420023A0346052A39D82C
:100B7000DFE802F01D360B230303012280F8F42086
:100B800000F1E00103F130000FE0D0F874210132F0
:100B9000C0F87421D3F870118A4200F1300019DADC
:100BA000022283F8F42003F5BC71FFF79DBB0422F9
:100BB00083F8F42003F5C671E4E7D0F87421013A14
:100BC000C0F87421D3F870118A4200F1300001DDC1
:100BD0000322E6E7012283F8F42003F1E001E4E7D1
:100BE0000522E5E77047000070B50F4C23780E46EC
:100BF000154623B10D4803F063FE002323703368CC
:100C00000A2B0AD12B680D2B09D00E2B09D00C2BE7
:100C100003D10749054803F013FE012070BD0549C3
:100C2000F8E70021F6E700BF9D010020D404002072
:100C3000CDCC4C3ECDCC4CBE70B50F4C23780E467F
:100C4000154623B10D4803F040FE0023237033689E
:100C50000A2B0AD12B680D2B09D00E2B09D00C2B97
:100C600003D10749054803F009FE012070BD05497D
:100C7000F8E70021F6E700BF9C010020D404002023
:100C8000CDCC4C3ECDCC4CBE036810B504469B6821
:100C90009847A368013BA3602BB923682046DB6813
:100CA000BDE81040184710BD00F1080373B503609C
:100CB000044608460D4621F033FE0F2805EB0006DA
:100CC000019007D9002201A920460DF069FA019B85
:100CD0002060A3603246294620680DF0EEFA019BA1
:100CE0002268636000212046D15402B070BD08B173
:100CF00005F0D9BB7047B0F1805F08B501D30DF0A6
:100D0000E1FF0001BDE8084005F0BCBBB0F1005FA9
:100D100008B501D30DF0D6FFC000BDE8084005F0CE
:100D2000B1BBB0F1805F08B501D30DF0CBFF00017E
:100D3000BDE8084005F0A6BB70B503461446002583
:100D400099420AD034B11E68C4E900655E685D60EE
:100D500066601D6008340833F2E7081A104470BD5D
:100D6000C3680C305B681847C3680C305B68184771
:100D7000C3680C305B681847C3680C305B68184761
:100D8000C3680C305B681847C3680C305B68184751
:100D9000C3680C305B681847C3680C305B68184741
:100DA000C3680C305B681847C3680C305B68184731
:100DB000C3680C305B681847C3680C305B68184721
:100DC000C3680C305B68184770B5034614460025AD
:100DD00099420AD034B11E68C4E900655E685D605E
:100DE00066601D6008340833F2E7081A104470BDCD
:100DF00070B5034614460025994211D06CB11E68A7
:100E0000C4E900655E685D6066609E681D60C4E957
:100E10000265DE68DD60E6609D6010341033EBE74C
:100E2000081A104470BD38B5102204460D46002142
:100E30001FF0D1F92046294605F0F8F9204638BDC3
:100E400038B5084904460025FFF724FAC4E90555DA
:100E5000054904F11C00FFF727FFC4E90D552046A2
:100E600038BD00BFB004002047A20208F8B5044610
:100E70001D4616460F46FFF7F5FB0020C4E90500A6
:100E8000394604F11C000DF09BFD336863632B6849
:100E9000A3632046F8BD000010B592B00446014699
:100EA0006846FFF793FB254A002168460DF06AFC6F
:100EB000014606A80DF082FA214906A80DF0AEFC05
:100EC00001460CA80DF07AFA0C9803F051FC0CA81E
:100ED0000DF080F906A80DF07DF968460DF07AF95D
:100EE000216A0EAB0C930CA8002307310D938DF8EB
:100EF00038300DF0A2FA072212490CA80DF07EFC42
:100F000004F11C010CA80DF06FFC0C9803F030FCF0
:100F10000CA80DF05FF9626B0B490CA820F0F4FCF3
:100F20000CA803F025FCA26B08490CA820F0ECFCEF
:100F30000CA803F01DFC12B010BD00BF27A20208D0
:100F400046A202082FA2020837A2020848A20208FD
:100F500010B50446006828B14368013B43600BB9F3
:100F6000FFF792FE204610BD10B504460C30FFF787
:100F7000EFFF201DFFF7ECFF204610BD10B5044623
:100F80000C30FFF7E5FF201DFFF7E2FF204610BD04
:100F90000B68036013B15A6801325A60704710B58C
:100FA00051F8043B044640F8043BFFF7F1FF2046AC
:100FB00010BD38B504460D46FFF76CF905F1140174
:100FC00004F11400FFF7EBFF05F11C0104F11C0014
:100FD0000DF0F6FC6B6B6363AB6BA363204638BD0F
:100FE0002DE9F04180460C46174606461546B442A8
:100FF00007D01DB131462846FFF7DBFF3C363C35B4
:10100000F5E7A4EB08040548A408444324F0404451
:101010003C2000FB0470BDE8F08100BFEFEEEE2E37
:101020002DE9F04180460C46174606461546B44267
:1010300007D01DB131462846FFF7BBFF3C363C3593
:10104000F5E7A4EB08040548A408444324F0404411
:101050003C2000FB0470BDE8F08100BFEFEEEE2EF7
:1010600070B5D0E900560446AE4204D02846FFF7DA
:1010700085FF1035F8E7206808B105F014FA20461E
:1010800070BD38B5C4688CB104F1100504F11C00C2
:10109000FFF7E6FF2846FFF7E3FF606808B105F0B9
:1010A00002FA2046BDE8384005F0FDB938BD10B55C
:1010B00004461C300DF08EF804F11800FFF748FFCD
:1010C000204610BD10B551F8043B044640F8043BDF
:1010D000FFF75EFF204610BD38B551F8043B0446CB
:1010E000154640F8043BFFF753FF294604F108007A
:1010F000FFF7E8FF204638BD10B5044B044640F822
:10110000043BFFF763F9204610BD00BF109D0208A5
:1011100038B5044608680D4670B10023084A0949ED
:1011200005F0C3F940B12346291D43F8040B1846C6
:10113000FFF72EFF204638BD0023C4E90033F9E74E
:10114000C49102089C9002082DE9F0430C468BB034
:101150001146064604F1140520461746FFF7C4F869
:1011600004F158012846FFF7BFF8616BA1B10B6885
:1011700068469B689847214605A86A46FFF736F9F6
:1011800005A92846FFF7B0F829463046FFF782F850
:1011900030460BB0BDE8F083D4E90A48A045F3D04F
:1011A000D4F80090394605A8FFF774F84946684618
:1011B00005AAFFF7C9FF29466846FFF7A0F818B14E
:1011C00069462846FFF790F80834E7E72DE9F84329
:1011D000D1E90036F61A00230546C0E900338360E2
:1011E000F0100F4601D0FFF791FDC5E9000006445D
:1011F000AE60D7E9009604464F468046BE420AD00C
:10120000B8F1000F03D039464046FFF7C8FE08F199
:1012100008080837F2E7A6EB090634446C60284654
:10122000BDE8F88338B5044608680D4670B1002360
:10123000084A094905F039F940B12346291D43F808
:10124000040B1846FFF7A4FE204638BD0023C4E96E
:101250000033F9E7D89002089C90020838B505469B
:101260000C680068A0420BD014B16368013363605E
:1012700028B14368013B43600BB9FFF705FD2C60C3
:10128000284638BD2DE9F04F002597B0CDE902552D
:10129000CDE90455D0E9044A07460E46544500F00E
:1012A000978023680B93002B00F08C80211D0CA8E5
:1012B000FFF76EFEDDE90B320DF158090499049336
:1012C000059B109149F8143D48460592CDE90B5510
:1012D000FFF73EFE0CA8FFF73BFE3B6906A8E31AAA
:1012E0004FEA2318FFF7BEF91423796803FB08F8C7
:1012F00001EB080B04990BA83031FEF7CBFF5946E0
:1013000010A80BAAFFF772F810A906A8FEF7F7FFBE
:1013100000285BD1049803686A46DB6801A99847F6
:101320008346002852D0A3680B93002B4CD004F1C5
:101330000C010CA8FFF72CFEDDE90B120023CDE910
:101340000B33029B10934846039B02910392119327
:10135000FFF7FEFD0CA8FFF7FBFD7B6810A8984483
:10136000FFF780F910A94046FEF7BEFF10A8FFF76F
:1013700079F910A93046FEF7B7FF029B736103A904
:1013800006F11800FFF76AFF049910A818310DF054
:1013900017FB10A906F11C000CF094FF10A80CF02C
:1013A00019FF009BB363019B73633046FFF774FD25
:1013B00005A8FFF7CDFD03A8FFF7CAFD584617B0F3
:1013C000BDE8F08F0C9375E70C93B5E7103465E733
:1013D0004FF0000BECE738B504460D46FFF7DFFD94
:1013E00005F1080104F10800FFF7D9FD204638BDDA
:1013F0002DE9F04705460F46FFF7E8FE07F10C011F
:1014000005F10C00FFF7E2FED7E90636F61A3011B7
:101410004FF00003C5E906332B6201D0FFF781FCD2
:10142000C5E9060006442E62D7E906A60446D04662
:10143000814646450BD0B9F1000F03D041464846DE
:10144000FFF7C9FF09F1100908F11008F1E7A6EB51
:101450000A063444EC6107F1240105F12400FFF78A
:10146000B5FE2846BDE8F08710B5D0E90034E41A8F
:1014700023116FF07044E01A884202D210460DF03A
:101480002AFC994238BF1946591804D2A14228BFF4
:101490002146084610BD2046FCE770B506460C46BE
:1014A0006CB1E1683046FFF7F8FFA56804F1180059
:1014B000FFF74EFD204604F0F6FF2C46F0E770BD26
:1014C00008B542684B689A4208D14AB10968006879
:1014D0001EF04EFEB0FA80F0400908BD0020FCE787
:1014E0000120FAE710B5496890B004463C3901A8DC
:1014F000FFF75FFD04F1500108A8FFF7E1FFD0B14D
:1015000094F8A0210F9B7AB9C82B0DD1012384F840
:10151000A03104F5177104F13000FEF7E5FE01A8D3
:10152000FFF7C5FD10B010BDC92BF8D1042384F816
:10153000A0315E49EFE704F1680108A8FFF7C0FF9A
:1015400060B194F8A031022BE9D10F9BC4F81C3292
:10155000012BE4D1C4F84432032320E004F18001DC
:1015600008A8FFF7ADFF40B194F8A031022BD6D107
:101570000F9AC4F82022012AEBE704F1980108A889
:10158000FFF79EFF80B194F8A031022BC7D10F9BCB
:10159000C4F82432012BC2D10323C4F8443284F8A6
:1015A000A03104F51271B6E704F1B00108A8FFF705
:1015B00087FF50B194F8A031022BB0D10F9BC4F833
:1015C0002832012BABD10423C4E704F1C80108A8D9
:1015D000FFF776FF50B194F8A031022B9FD10F9BFB
:1015E000C4F82C32012B9AD10523B3E704F1E001B2
:1015F00008A8FFF765FF50B194F8A031022B8ED1F7
:101600000F9BC4F83032012B89D10623A2E704F1E5
:10161000F80108A8FFF754FF60B194F8A031022B3D
:101620007FF47DAF0F9BC4F83432012B7FF477AF8A
:1016300007238FE704F5887108A8FFF741FF60B121
:1016400094F8A031022B7FF46AAF0F9BC4F83832B4
:10165000012B7FF464AF08237CE704F5947108A89C
:10166000FFF72EFF60B194F8A031022B7FF457AF43
:101670000F9BC4F83C32012B7FF451AF092369E77B
:1016800004F5A07108A8FFF71BFF00283FF447AF3F
:1016900094F8A031022B7FF442AF0F9BC4F8403284
:1016A000012B7FF43CAF0A2354E700BFB0040020B5
:1016B00010B5496890B004463C3901A8FFF779FCA1
:1016C00004F1500108A8FFF7FBFEF8B194F8F430DC
:1016D000012B10D10F9BD4F87421C4F870319B1AE0
:1016E000002B18DD022384F8F43004F5BC7104F1FA
:1016F0003000FEF7F9FD0F9BC92B07D1062384F8B4
:10170000F430064904F13000FEF7EEFD01A8FFF7C2
:10171000CEFC10B010BDEED00323E4E7B0040020EF
:1017200038B504460D46AC4204D0201DFFF710FC2E
:101730000834F8E738BD10B50446D0E90001FFF7DA
:10174000EFFF206808B104F0AEFE204610BD2DE981
:10175000F843D0E901839845054689460AD0B8F197
:10176000000F02D04046FFF71AFC6B6808336B602D
:10177000BDE8F8830768A8EB0707FC1014BF2346F1
:101780000123E41826D2B4F1005F23D22CB3204603
:10179000FFF7BCFA0646F01902D04946FFF7FFFBF7
:1017A000324641462868FFF70FFB696800F10802DE
:1017B0004046FFF709FB0746D5E90001FFF7B0FFF8
:1017C000286808B104F06FFE06EBC404C5E90067A1
:1017D000AC60CDE76FF06044D9E72646DBE738B56B
:1017E00004460D46AC4204D02046FFF7BDFB103442
:1017F000F8E738BD10B504462430FFF79CFFD4E964
:101800000601FFF7ECFFA069FFF771FA04F10C0085
:10181000FFF791FF2046FFF78EFF204610BD000026
:1018200010B5C46854B12046054B40F8183BFFF78B
:10183000E1FF2046BDE8104004F035BE10BD00BFFA
:10184000889D02082DE9F843D0E901639E420446D1
:10185000894608D016B13046FFF7BDFD63681033E6
:101860006360BDE8F883154A0121FFF7FDFD276895
:101870008046F71B00B3FFF754FA0546E81902D07B
:101880004946FFF7A8FD2A4631462068FFF7B0FA1F
:10189000616800F110023046FFF7AAFA0646D4E963
:1018A0000001FFF79CFF2068FFF721FAC4E900560A
:1018B00005EB0815A560D4E70546DFE76EA2020830
:1018C0002DE9F843D0E901539D4206460C4613D05A
:1018D00075B10B682B6000236B604A684B606A60CF
:1018E0008A680B60C5E90223CA68CB60EA608B6036
:1018F00010357560BDE8F8831C4A0121FFF7B4FD7F
:1019000033688146A5EB030870B3FFF70AFA074670
:1019100017EB08020FD0236847F808300023536004
:10192000616863605160A1682360C2E90213E168E5
:10193000E360D160A3603A4629463068FFF758FA61
:10194000716800F110022846FFF752FA0446D6E902
:101950000001FFF744FF3068FFF7C9F9C6E90074DA
:1019600007EB0917B760C5E70746D1E76EA2020883
:101970008B6870B5044616460D1D01205BB11A69CF
:101980003068904234BF9A68DA681D4634BF01203F
:1019900000201346F2E790B1CA68AA4203D1C4E915
:1019A0000035204670BD284605F07FF9336802698E
:1019B0009A424FF00003F2D3C4E90003F1E728464E
:1019C000F4E738B51C460546031D79B99A420DD097
:1019D0002069116988422CBF00200120214605F0B2
:1019E00066F96B6901336B61204638BD0120F5E76C
:1019F0002DE9F74305461C2017461E46894604F08C
:101A000041FD31463B68036100F1180851F8043B81
:101A1000436104464046FFF7BBFA04F11002494611
:101A20006846FFF7A5FFDDE9007666B1234632463A
:101A300039464846FFF7C5FF012328602B71284629
:101A400003B0BDE8F0834046FFF782FA204604F079
:101A50002AFD2F602E71F2E72DE9F743836800F12C
:101A6000040905460F464C464BB13A681969914244
:101A700036BFDA689A6823461C461346F4E7A14548
:101A800003D03A6823699A4262D21C2004F0FAFC1F
:101A90003F680761064600F11008A1454FF00000BD
:101AA000C6E9050016D16B691BB12A691369BB42EF
:101AB00047D3424629466846FFF75AFFDDE9004210
:101AC000002A3FD106F11800FFF742FA304604F031
:101AD000EAFC3DE02369BB4219D9EB689C420BD07C
:101AE000204605F0E2F80369BB4208D2C368002B28
:101AF0000ABF04462346002322461C46E0E742462E
:101B000029466846FFF734FFDDE90034F4E7D9D20F
:101B10002A69944209D0204605F0B3F80369BB4214
:101B200005D9E3685BB9224618460446C8E7424631
:101B300068462946FFF71CFFDDE90002F5E702468B
:101B4000F3E70446214633462846FFF73AFF0446AA
:101B500004F1140003B0BDE8F0830000D0E90003F5
:101B600010B51B1A0A4C9B1063430A4CE01A8842BA
:101B700002D210460DF0AFF8994238BF19465918F5
:101B800004D2A14228BF2146084610BD2046FCE7EA
:101B9000EFEEEEEE4444440438B504460D46AC4244
:101BA00004D02046FFF783FA3C34F8E738BD10B57F
:101BB0000446D0E90001FFF7EFFF206808B104F008
:101BC00072FC204610BD0000114B70B50446C36086
:101BD00000F5A070FFF76BFA04F58270FFF767FA63
:101BE00004F15C0604F1EC05AE4204D0183D284631
:101BF0000CF0F0FAF8E704F15000FFF7D8FF054BBE
:101C0000E36004F12400BDE870400CF0E3BA00BFCB
:101C1000649D02081C9D0208114B70B50446C36008
:101C200000F5F670FFF743FA04F5D870FFF73FFAB6
:101C300004F15C0604F5D675AE4204D0183D284682
:101C40000CF0C8FAF8E704F15000FFF7B0FF054BBD
:101C5000E36004F12400BDE870400CF0BBBA00BFA3
:101C6000409D02081C9D0208006810B103681B69B2
:101C70001847704738B50D4651F8043B044640F804
:101C8000043BFFF785F905F1080104F10800FFF7AF
:101C900086F9204638BD2DE9F04180460C461746AE
:101CA00005461646AC4207D01EB129463046FFF71E
:101CB000E1FF10361035F5E7A4EB08003844BDE825
:101CC000F08170B5D1E90035ED1A00230446C0E972
:101CD0000033836028110E4601D0FFF70CF8C4E9E9
:101CE00000000544A5600246D6E90001FFF7D3FFD6
:101CF0006060204670BD81422DE9F84F80468B46DA
:101D00002DD0D1E90045D0F8009083682F1B3E11FB
:101D1000A3EB0903B6EB231F24D91EB13046FEF70F
:101D2000EAFF0646294620463246FFF7B4FFD8E9C7
:101D30000045A54204D02046FFF720F91034F8E70B
:101D4000D8F8000008B104F0AEFBC8F800603E44CB
:101D5000C8F80860D8F800301F44C8F8047040463E
:101D6000BDE8F88F4368A3EB09034FEA231A5645F1
:101D700009F1040504F1040426D8B246BAF1000FB3
:101D800014DD54F8043C45F8043C21462846FFF78E
:101D900065FA63686B6004F1080105F10800FFF75C
:101DA0005DFA0AF1FF3A10351034E7E726EAE676E5
:101DB000D8F8044009EB06194C45CBD04846FFF74C
:101DC000DDF809F11009F7E7BAF1000F14DD54F856
:101DD000043C45F8043C21462846FFF73FFA636877
:101DE0006B6004F1080105F10800FFF737FA0AF10A
:101DF000FF3A10351034E7E7D8E900452B1BDBF834
:101E00000040DBF804601C44A642A3D01DB121466B
:101E10002846FFF72FFF10341035F5E72DE9F7437B
:101E200002AB03E90600019DDDF8009000232D01BF
:101E30000646C0E90033836009EB050728110DB1A0
:101E4000FEF759FF0544B560044630600546C846B4
:101E5000474508D01DB141462846FFF70BFF08F162
:101E600010081035F4E7A7EB09073C4430467460CE
:101E700003B0BDE8F08338B504460D46AC4204D04B
:101E8000201DFFF765F80834F8E738BD10B50446A3
:101E9000D0E90001FFF7EFFF206808B104F003FB71
:101EA000204610BD10B504468030FFF780FE04F1D7
:101EB0006C00FFF77CFE04F14C00FFF7E7FF04F134
:101EC0003C00FFF7E3FF04F13800FFF741F804F1AD
:101ED0002800FFF7DBFF204610BD10B5C4683CB1F9
:101EE0002046FFF7DFFF2046BDE8104004F0DBBAD4
:101EF00010BD08B50C30FFF7D5FF08BD81422DE9B4
:101F0000F84F074688463BD0D1E9004BD0F800A0F7
:101F10008368ABEB04064FEAE609A3EB0A03B9EBCF
:101F2000E30F30D9B9F1000F1AD0B9F1005F01D336
:101F30000CF0C8FE304604F0A5FA0546A846A345B5
:101F400010D0B8F1000F07D02146404651F8043BAD
:101F500040F8043BFFF71CF808F108080834EEE7E6
:101F60004D46EBE7D7E90001FFF785FF386808B178
:101F700004F099FA3D603544BD603B681E447E60C4
:101F80003846BDE8F88F4368A3EB0A034FEAE30B3A
:101F9000D9450AF1040504F104041ED8C846B8F175
:101FA000000F0CDD54F8043C45F8043C214628465B
:101FB000FFF754F908F1FF3808350834EFE729EA4C
:101FC000E9737D680AEBC30A5545D6D00AF10400CF
:101FD000FEF7BEFF0AF1080AF6E7BBF1000F0CDDC1
:101FE00054F8043C45F8043C21462846FFF736F9EE
:101FF0000BF1FF3B08350834EFE7D7E900452B1B11
:10200000D8F80040D8F804801C44A045B5D03DB1B4
:102010002146284651F8043B40F8043BFEF7B8FF40
:1020200008340835F1E72DE9F843D0E90034E41A23
:10203000E410914614BF22460122A41805460F461B
:10204000A1EB03082AD2B4F1005F27D244BB264695
:1020500016EB080007D04946043051F8043B46F817
:102060000830FEF795FF394632462868FEF764FED1
:10207000696800F108023846FEF75EFE0746D5E9BA
:102080000001FFF7F8FE286808B104F00CFA06EB2F
:10209000C404C5E90067AC60BDE8F8836FF0604434
:1020A000E00004F0EFF90646D2E7D0E901329342AE
:1020B00010B504460BD033B1184651F8042B40F844
:1020C000042BFEF765FF63680833636010BD0A46A2
:1020D0001946FFF7A8FFF9E72DE9F04F0025044660
:1020E0009FB00E46C0E90055C0E902550561FEF7F4
:1020F0004AF9C4E90555C4E90755656204F11400BD
:10210000FEF741F9316884F8485004F12803C4E926
:102110000A55C4E90C55C4E90E55C4E91055C4E983
:1021200013556565043104F158000093FEF7B2F8C9
:102130003168DFF8D482DFF8D492C4E91B55C4E9D2
:102140001D55C4E91F55C4E92155183112A8FFF7E0
:102150004FF90DAB8DF834500E951195129DCDE9C8
:102160000F33139B01930835019BA5F10806B34279
:1021700000F0E680DDE91B30C11A49119E460029B6
:10218000734665DD55F8087CDEF80020BA4204D0BD
:10219000DEF8082097424BD10833B3EB000B3146F1
:1021A00003A818BF4FF0010BFFF73CF8314605A814
:1021B000FEF7AEFF039B002B69D19820CDE90733D2
:1021C00004F060F91EAE82460122059946F8541DBE
:1021D000C0E901224AF80C8B074606A90AA8FEF7B7
:1021E000D7FE31465046FFF777FF0AA8FEF7B0FE4C
:1021F000494608A80897FFF737FD07A9079080F818
:1022000048B00098FFF751FF1EAA059B42F8703DA9
:102210000CA907AB3046FFF7EBFB08A8FEF798FECA
:1022200006A8FEF795FE04A8FEF792FE08359BE788
:10223000DEF81020974201D11033AEE70EF1200EE8
:102240005EF8082C974201D11833A6E7013996E7CA
:10225000C21AD210022A11D0032A08D0012A14D19E
:10226000196855F8082C914218BF034695E7DEF827
:10227000001055F8082C91428FD00833196855F892
:10228000082C914289D00833EAE7034685E7002706
:102290009820CDE9077704F0F5F80122064604A955
:1022A000C0E90122C0F80080039A09920AA8FEF74B
:1022B0006FFEC6E90377C6E90577F76106F10C0002
:1022C000FEF761F8C6E90877C6E90A77376306F1D1
:1022D0002000FEF758F8099A32640AA9C6E90D777A
:1022E000F76306F14400FEF753FE099937650431A0
:1022F000C6E91277C6E91677376606F16400FDF77E
:10230000C9FFC6E91E77C6E92077C6E92277C6E984
:1023100024770AA8FEF71CFE494608A80896FFF78E
:10232000A3FC07A9079080F848B00098FFF7BDFE0E
:102330001EAA039B42F8703D0CA907AB09A86AE7E7
:10234000DDE9125800270835A5F1080398453ED06D
:1023500000210846CDE909770B97FFF78CFDDDE9F1
:1023600018690A97B14555F8083C20D032689A425E
:102370001BD106F1080A514605A8FEF753FF514646
:1023800007A8FEF7C5FE059B03B9079B039303A9A6
:102390000CA8FFF761FB014609A8FFF786FE08A815
:1023A000FEF7D6FD06A8FEF7D3FD1036DAE71EA924
:1023B0000CA841F85C3DFFF74FFB006809A94C30C1
:1023C000FFF79CFD09A8FFF761FD0835BCE7DDE9D3
:1023D000155704F13C06AF420BD055F8083B099362
:1023E00009A90CA8FFF738FB01463046FFF75DFE50
:1023F000F1E70E990CA8FFF750F812A8FFF7FAF9C9
:1024000020461FB0BDE8F08F20A10208F494020816
:102410002DE9F0470024054691468EB0C0E90044FE
:10242000C0E90244046198460E46FDF7ACFFC5E9D9
:102430000544C5E90744494605F12400FFF741FC7E
:10244000414605F13000FFF73CFC3168DFF884A21B
:10245000043105F14000FDF71DFFD9E900470434C0
:10246000231F9F4217D054F8043C09936BB12146B7
:102470000AA8FEF78DFD099848B950461FF0EEF8FE
:102480000AA8FEF765FD1034EAE70A93F3E703684C
:102490001B699847F4E7D8E90047DFF83CA2043409
:1024A000231F9F4217D054F8043C09936BB1214677
:1024B0000AA8FEF76DFD099848B950461FF0CEF8FE
:1024C0000AA8FEF745FD1034EAE70A93F3E703682C
:1024D0001B699847F4E731460EAF51F8043B47F8C3
:1024E000283D05A8FEF754FD8C2003F0CBFF3946AC
:1024F00000260446FFF7F0FD102009940A9603F029
:10250000C1FF0123C0E901336E4B0360099B6A6977
:10251000C4606B61AB69A8610AA809920A93FEF7CF
:1025200017FD05A8FEF714FD494601A8FFF7C9FBF2
:1025300041463846FFF7C5FB282003F0A3FF01A959
:102540000446C0E90166C0E90366C0E90566C0E962
:10255000076646621030FFF7CEFB394604F11C00D7
:10256000FFF7C9FBD4E90436F61A3611266009A82C
:10257000FEF778F8D4F80480E368534AA3EB080325
:102580009B1053439E42B1465BD9E6B14F4B9E42EE
:1025900001D90CF097FB1420704303F073FF8046C1
:1025A000142303FB0686C246B9F1000F0DD0BAF121
:1025B000000F03D009A95046FDF76CFE09F1FF3961
:1025C0000AF1140AF0E7B046EAE76068E660C4E999
:1025D000018608B103F067FF0026102009940A96CF
:1025E00003F050FF0123C0E90133394B0360099B1D
:1025F000EA69C460EB612B6A28620AA809920A930F
:10260000FEF7A6FC3846FEF72BFD01A8FEF728FDD5
:102610006C690B96082309A8CDE90C36CDE909664B
:10262000FDF7B1FE09AA21463846FEF78DFD394671
:102630002846FDF759FE284685F83C600EB0BDE8F7
:10264000F087D4F80890A9EB08039B105A439642F0
:1026500026D9C14506D0404609A9FDF745FE08F137
:102660001408F6E7D4E90139174AA9EB03039B10D4
:1026700002FB1366C846B246BAF1000F0BD0B8F1A0
:10268000000F03D009A94046FDF704FE0AF1FF3A06
:1026900008F11408F0E7142303FB0696A6609BE7F5
:1026A000B246C146BAF1000F08D0484609A9FDF765
:1026B0001BFE0AF1FF3A09F11409F3E7142303FBA7
:1026C0000686EBE7449F0208CDCCCCCCCCCCCC0C1E
:1026D000609F0208F6A102080EA20208091A2DE95D
:1026E000F041CD109046161D041D2F46002F0BDD26
:1026F00054F8043C46F8043C21463046FEF7AEFD53
:10270000013F08360834F1E725EAE57008EBC00020
:10271000BDE8F0812DE9F8430446A2EB0109174614
:10272000A36822684FEAE9009B1AB0EBE30F0E465C
:102730001FD908B1FEF7EAFA05468046B7420AD02B
:10274000B8F1000F03D031464046FEF728FC0836AA
:1027500008F10808F2E7D4E90001FEF7E1FF20687C
:1027600008B103F0A0FE25604D44C4E90155BDE861
:10277000F8836568AD1AB0EBE50F09D839463046E5
:10278000FFF7ACFF61680546FEF7CAFF6560EEE73C
:102790000D4430462946FFF7A1FF6668A946B046BA
:1027A0004F450BD0B8F1000F03D049464046FEF725
:1027B000F6FB09F1080908F10808F1E77D1B35442B
:1027C000E4E7091A2DE9F0410D119046161D041D8C
:1027D0002F46002F13DD54F8043C46F8043C2146F4
:1027E0003046FEF73BFD6368736004F1080106F1B3
:1027F0000800FEF733FD013F10361034E9E725EA03
:10280000E57008EB0010BDE8F0812DE9F8430446BF
:10281000A2EB01091746A36822684FEA29109B1A08
:10282000B0EB231F0E461ED908B1FEF77AFA054613
:102830008046B7420AD0B8F1000F03D03146404677
:10284000FEF7C9FD103608F11008F2E7D4E90001DF
:10285000FEF7C5FF2068FEF74AFA25604D44C4E93B
:102860000155BDE8F8836568AD1AB0EB251F09D89E
:1028700039463046FFF7A5FF61680546FEF7AFFF12
:102880006560EEE70D4430462946FFF79AFF66681B
:10289000A946B0464F450BD0B8F1000F03D04946CA
:1028A0004046FEF798FD09F1100908F11008F1E71C
:1028B0007D1B3544E4E7000082B02DE9F04FF1B014
:1028C00004467B9303937D9B01930DF1180B7F9B33
:1028D000029327468BE806000D46FEF70DFCAB4B36
:1028E00047F8183B40AA00231146C4E90633C4E95F
:1028F0000833C4E90A33C4E90C33C4E90E33C4E92C
:1029000010333846FFF706FF04F124094CAA11469C
:102910004FF000034846FFF7FDFE04F1300658AAC9
:1029200011464FF0000330460DF5C87A04F13C081B
:10293000FFF76BFF4FF00003524651464046FFF74A
:10294000E9FE934B2360DBF8043005EBC30B5D45D8
:102950003AD029465046FEF7DBFB649941B9294637
:102960003846FEF7F4FE65A8FEF7F2FA0835EEE702
:10297000183110A8FEF73CFDDDE910329A420592AD
:1029800008D0194638460493FEF7E1FE049B059AE9
:102990000833F3E710A8FEF72DFF64991CA818313F
:1029A000FEF726FDDDE922329A42059208D019464B
:1029B00030460493FEF746FF049B059A1033F3E775
:1029C0001CA8FEF717FFCEE7039B7C9D1F4603EB79
:1029D000C505AF4221D0394664A8FEF799FB64993A
:1029E00041B939464846FEF7B2FE65A8FEF7B0FA8F
:1029F0000837EEE7183128A8FEF7FAFCDDE92BAB23
:102A0000D34506D051464846FEF7A1FE0AF1080A12
:102A1000F6E728A8FEF7EEFEE7E7029A809B154648
:102A200002EBC3094D4520D0294664A8FEF770FB90
:102A3000649941B929464046FEF789FE65A8FEF72C
:102A400087FA0835EEE7183134A8FEF7D1FCDDE946
:102A50003D7ABA4505D039464046FEF778FE08373C
:102A6000F7E734A8FEF7C6FEE8E7019A7E9B154615
:102A700002EB0318454500F08380294608A8FEF7BD
:102A800047FB05F108010AA8FEF742FB08990A9BDB
:102A900059BB5BB929463046FEF7D4FE0BA8FEF7BA
:102AA00057FA09A8FEF754FA1035E3E703F11801C5
:102AB00040A8FEF79DFCDDF81091439FB94510D06A
:102AC00029460CA8FEF76BFA39460EA8FEF767FAFE
:102AD0000CA93046FEF7F4FE0CA8FEF745FA0837BD
:102AE000ECE740A8FEF786FED8E71831E3B94CA81A
:102AF000FEF77EFCDDF85891559FB94512D0394656
:102B00000CA8FEF74CFA0A9B0E930BA90FA8FEF730
:102B10003FFA0CA93046FEF7D3FE0CA8FEF724FAC4
:102B20000837EAE74CA8DDE758A8FEF761FCDDF8B6
:102B300088A1619F574521D00A9964A81831FEF7F2
:102B400057FCDDF8A0B1DDF89C91CB4511D039469A
:102B50000CA8FEF724FA49460EA8FEF720FA0CA9A5
:102B60003046FEF7ADFE0CA8FEF7FEF909F10809A4
:102B7000EBE764A8FEF73EFE0837DBE758A8B1E7AD
:102B8000204671B0BDE8F04F02B07047889D020842
:102B9000949D02082DE9F0410746884616461546E1
:102BA0000446444507D01DB121462846FEF701FAE8
:102BB0003C343C35F5E7E41B0448A408444324F0C6
:102BC00040443C2000FB0460BDE8F081EFEEEE2EB7
:102BD00038B50D460446FDF787FB6B69636105F167
:102BE000180104F11800FEF739FB04F11C0005F18F
:102BF0001C010BF067FB6B6B6363AB6BA36320463D
:102C000038BD00002DE9F041091A0C4C89104C43E5
:102C10009046054626461746002E07DD29463846CB
:102C2000FFF7D6FF3C353C37013EF5E724EAE47474
:102C30003C2000FB0480BDE8F08100BFEFEEEEEE2B
:102C400093422DE9F74F0446884691469B4630D083
:102C50009B1AD0E901523E4F521B4FEAA30A921031
:102C600007FB0AFA7A43524541D36A1A96107E430B
:102C7000B245019220D2EE1A2A46294630460193E7
:102C8000FEF7CEF96268019B13446360A6EB08036C
:102C90009B105F43002F07DD3C3D3C3E31462846FC
:102CA000FFF796FF013FF5E7424659464846FFF7D2
:102CB000A9FF03B0BDE8F08F019B09EB03072A468B
:102CC00059463846FEF78CF96268AAEB06064FF0C3
:102CD0003C0A0AFB0622626029464046FEF7A0F93C
:102CE0006368019A1344636042463946DEE7194A35
:102CF0005146FEF733FF054640B3174B984201D9C2
:102D00000BF0E0FF3C20684303F0BCFB0646324674
:102D100041462068FFF73EFF594602464846FEF707
:102D20005FF9616802464046FFF734FF0746D4E981
:102D30000001FEF731FF206808B103F0B4FB3C232B
:102D400003FB0565C4E90067A560B2E70646DEE758
:102D5000EFEEEEEE56A202084444440473B5046854
:102D600005464FF000068DF800600C1BFFF768FF6A
:102D70002868204402B070BDF0B50D4689B0044605
:102D8000114605F114001646FDF7A7FA30B10023ED
:102D9000C4E90033A360204609B0F0BD696B21B1DE
:102DA0000B682046DB689847F5E7CDE90011D5E9C7
:102DB0000A5702910835A5F108039F421FD055F824
:102DC000081C03A81431FDF765FA314603A8FDF786
:102DD0006CFA0028EED055F8081C91F84830002B0A
:102DE000E8D0324603A8FFF7C7FFDDE903230199C6
:102DF0006846FFF7B3FF03A8FEF7D9FEDAE7019AAA
:102E0000009B6260029A2360A260002368460093E0
:102E100001930293FEF7CBFEBDE700002DE9F04FD2
:102E2000C36F466B013391B004460D46C36700F192
:102E30001407002E44D0336830469B699847D4E984
:102E40001B329A423946284624D1FDF72EFAA0B10A
:102E5000606B03685B68984729462046FDF744FA93
:102E6000616B0B6806A89B68984721460BA806AAC9
:102E7000FDF7BCFA0BA9384601E029462046FDF7CC
:102E800033FAD4E91B512846FEF786FE256711B0B8
:102E9000BDE8F08FFDF709FA666B04F16C08336842
:102EA00058B1D3F81490224629460BA8FDF7F3FA3F
:102EB0000BAA41463046C847CEE7D3F81090F2E758
:102EC000604801F055FC29462046FDF70DFACDE992
:102ED0000066CDE90266CDE90466D4E90F690836DB
:102EE000A6F10808C1451DD056F8081C0BA81431DE
:102EF000FDF7D0F921460BA8FDF7EFF948B156F8D8
:102F0000083CD3E91B329A4203D1414603A8FFF79C
:102F1000CCF856F8080CD4E91B23016F6C30FFF78E
:102F20001DFFDCE739462046FDF7BFF9002849D0F0
:102F3000D4E90A89C84545D0D8F800100BA8143147
:102F4000FDF7A8F939460BA8FDF7AFF9B8B341462C
:102F50006846FFF7AAF8D8F80010D1E913329A4270
:102F60002DD0224606A8FFF707FFD8F80030D3E996
:102F7000136A0836A6F1080BDA451DD056F8081C6E
:102F80000BA81431FDF786F921460BA8FDF7A5F92A
:102F900048B156F8083CD3E91B329A4203D159464E
:102FA00003A8FFF782F856F8080CDDE90623016F45
:102FB0006C30FFF7D3FEDCE706A8FEF7F8FD08F15A
:102FC0000808B7E7DDE90068B04505D0294656F89E
:102FD000080BFFF723FFF7E7DDE90368B04505D0ED
:102FE000294656F8080BFFF719FFF7E7D4E90A5806
:102FF000A84516D02E460835A84511D029680BA83B
:103000001431FDF747F9316806A81431FDF742F98C
:1030100006A90BA8FDF773F9002818BF2E46EAE7AA
:10302000354629680BA81431FDF734F90BA9384649
:10303000FDF75AF903A8FEF729FF6846FEF726FFB9
:103040001FE700BFD3A102082DE9F04F0C46B1B035
:1030500080461746FDF71EFB94F83C30002B68D0E5
:1030600039462046FDF74BF9002800F0E98021465B
:103070006069FFF7D3FE616921A81431FDF70AF9F1
:1030800021A92046FDF730F9EAE7714A012105F14F
:103090006C00FEF763FDEB6E0646ABEB030950B325
:1030A0006C4A904201D90BF00DFE3C20704303F0B6
:1030B000E9F982461AEB090002D021A9FDF779FF50
:1030C00059465246E86EFFF765FD296F00F13C0254
:1030D0005846FFF75FFD8346D5E91B01FEF75CFD0F
:1030E000E86E08B103F0DFF93C2303FB06A6C5E94F
:1030F0001BAB6E674FE08246DCE712A8FDF7D7FFF7
:1031000025E00CA80BF066F821A8FDF7D0FF3C36AF
:103110005DE021466069FFF781FE616921A81431F5
:10312000FDF7B8F821A92046FDF7DEF804A8FEF760
:103130003EFD21A8FDF796FA394621A8FDF7DFF8F4
:1031400028B939462046FDF7DAF8002878D021A8BA
:10315000FDF788FA214621A8FDF7D1F840B312A85F
:10316000FDF76EFE12A9E069FEF78CF80028C4D0C6
:10317000656912A921A8FDF71CFFD5E91CB39B4581
:1031800083D0BBF1000F03D021A95846FDF711FFF2
:103190002B6F3C332B6721A8FDF789FF21A8FDF792
:1031A00061FA21A92046FDF79FF812A8FDF77FFFDD
:1031B0002246616904A8FFF7DFFDDDE904329A4287
:1031C000A7D0214607A8FDF765F8DDE9046AB245F6
:1031D0009FD0059921A83C39FDF7EBFE05983C38B6
:1031E0000590FDF764FFE56928A90CA80BF0E8FB42
:1031F00021A8FDF751FE2F9B0293D5E9075B2E9B7B
:1032000003931035A5F110039B453FF47AAF55F8B1
:10321000101C12A818310BF0D3FB0CA912A8FEF752
:103220004FF9019012A80AF0D5FF019B002BE8D0BE
:1032300055F8100C036802AADB6803A99847E0E779
:1032400021464046FDF726F8404631B0BDE8F08FF4
:103250006EA202084444440410B50446FDF74CFF36
:103260002046044B40F8183B0349FDF71DFD20465E
:1032700010BD00BF1C9D0208EFA102082DE9F0431C
:10328000002589B007464FF42470CDE9005503F0BE
:10329000F9F801230646C0E90133614B46F80C3BBF
:1032A0000446604902A8FDF7FFFC04F51F7830468C
:1032B000FFF7D2FF5C4BE360414604F13C00FCF7B2
:1032C000E9FFC4E9145504F15C06A565334604F52D
:1032D000D67203F108011D72C3E9001518339A4232
:1032E000F7D104F5D87084F8AC51FDF7A9FD04F5C9
:1032F000F670FDF7A5FD4FF0280904F51570C4F828
:103300002852C4F82C52C4F83052C4F83452C4F8CD
:103310003852C4F83C52C4F84052C4F84452C4F87D
:103320004852C4F84C52C4F85052C4F85452C4F82D
:103330005852C4F85C52C4F86092C4F86452FDF765
:1033400022F804F51A70C4F86852C4F86C52C4F834
:103350007052C4F87492C4F87852FDF714F804F16E
:1033600010014046FCF796FF304930460BF0EDF96E
:103370002F4904F174000BF0E8F92E4904F18C0098
:103380000BF0E3F92C4904F1A4000BF0DEF92B4912
:1033900004F1BC000BF0D9F9294904F1D4000BF079
:1033A000D4F9284904F1EC000BF0CFF9264904F5D3
:1033B00082700BF0CAF9254904F58E700BF0C5F93F
:1033C000234904F59A700BF0C0F9224904F5A67060
:1033D0000BF0BBF9204904F5B2700BF0B6F91F49A8
:1033E00004F5BE700BF0B1F908AE1D4904F5CA70C2
:1033F0000BF0ABF902A80AF0EDFE46F81C4D194996
:103400003046FEF731FC019B38607B603046019509
:103410000095FDF79DFD384609B0BDE8F08300BF7B
:103420007C9F0208DDA10208409D020834A1020829
:103430003EA1020848A1020852A102085CA10208AC
:1034400066A102083DA1020847A1020851A1020895
:103450005BA1020865A102086FA102087BA1020816
:1034600088A10208F49402082DE9F041002588B0F3
:1034700007464FF4D670CDE9005503F003F8012359
:103480000646C0E90133444B46F80C3B0446434929
:1034900002A8FDF709FC304604F1EC06FFF7DCFE5C
:1034A0003F4BE360314604F13C00FCF7F3FEC4E916
:1034B000145504F15C08A565434603F108021D722A
:1034C000C3E9002518339E42F7D104F110013046BC
:1034D000FCF7E0FE012604F5827084F80061FDF738
:1034E000AFFC04F5A070FDF7ABFC322304F5C2700D
:1034F000C4F89031C4F87C51C4F88051C4F88451A8
:10350000C4F88851C4F88C51C4F89451FCF73BFFBF
:1035100004F5CC70C4F8A061C4F89851C4F89C516B
:10352000C4F8A451C4F8A851FCF72DFF1D4940462A
:103530000BF00BF91C4904F174000BF006F91B4960
:1035400004F18C000BF001F9194904F1A4000BF00F
:10355000FCF8184904F1BC000BF0F7F8164904F127
:10356000D4000BF0F2F808AE14481EF077F802A869
:103570000AF030FE46F81C4D11493046FEF774FB48
:10358000019B38607B60304601950095FDF7E0FCBB
:10359000384608B0BDE8F081989F0208E6A102080D
:1035A000649D02087BA1020892A102089FA1020863
:1035B000A6A10208ADA10208B8A10208C1A1020893
:1035C000F494020870B5044615460E46FDF794FDC6
:1035D0002046064B40F8183B31460BF0F1F92946DE
:1035E00004F13000FCF756FE204670BDA09D020895
:1035F000F0B500248FB007465020CDE9014402F019
:1036000041FF01230646C0E90133164B46F80C3B47
:103610000546154908A8FDF747FBC82303A8CDE9CF
:103620000634CDE903440594FCF7ADFE03AA08A9CE
:1036300030460EAEFFF7C6FF0C4BEB6008A80AF051
:10364000C9FD46F8305D0A493046FEF70DFB029B86
:1036500038607B60304602940194FDF779FC38466F
:103660000FB0F0BDB49F020834A10208BC9D02084F
:10367000F49402082DE9F04100248EB00746502052
:10368000CDE9014402F0FEFE0646184B18494FF002
:1036900001080546C0E9018846F80C3B08A8FDF77B
:1036A00003FB03A8CDE90344CDE905840794FCF7A7
:1036B0006AFE03AA08A930460EAEFFF783FF0D4B42
:1036C000EB6008A80AF086FD46F8305D0A493046EE
:1036D000FEF7CAFA029B38607B6030460294019480
:1036E000FDF736FC38460EB0BDE8F081D09F0208E9
:1036F0003EA10208D89D0208F4940208F0B5002407
:103700008FB007465020CDE9014402F0BBFE0123F3
:103710000646C0E90133164B46F80C3B05461549F1
:1037200008A8FDF7C1FAC82303A8CDE90634CDE9FE
:1037300003440594FCF727FE03AA08A930460EAE01
:10374000FFF740FF0C4BEB6008A80AF043FD46F87A
:10375000305D0A493046FEF787FA029B38607B608D
:10376000304602940194FDF7F3FB38460FB0F0BDEC
:10377000EC9F020848A10208F49D0208F494020894
:103780002DE9F04100248EB007465020CDE90144D8
:1037900002F078FE0646184B18494FF0010805461E
:1037A000C0E9018846F80C3B08A8FDF77DFA03A89C
:1037B000CDE90344CDE905840794FCF7E4FD03AAB1
:1037C00008A930460EAEFFF7FDFE0D4BEB6008A8D2
:1037D0000AF000FD46F8305D0A493046FEF744FA2B
:1037E000029B38607B60304602940194FDF7B0FB89
:1037F00038460EB0BDE8F08108A0020852A10208C8
:10380000109E0208F4940208F0B500248FB0074619
:103810005020CDE9014402F035FE01230646C0E9FF
:103820000133164B46F80C3B0546154908A8FDF731
:103830003BFAC82303A8CDE90634CDE90344059437
:10384000FCF7A1FD03AA08A930460EAEFFF7BAFEA9
:103850000C4BEB6008A80AF0BDFC46F8305D0A4945
:103860003046FEF701FA029B38607B6030460294D6
:103870000194FDF76DFB38460FB0F0BD24A002089F
:103880005CA102082C9E0208F49402082DE9F04184
:1038900000248EB007465020CDE9014402F0F2FD2D
:1038A0000646184B18494FF001080546C0E9018843
:1038B00046F80C3B08A8FDF7F7F903A8CDE9034447
:1038C000CDE905840794FCF75EFD03AA08A93046FC
:1038D0000EAEFFF777FE0D4BEB6008A80AF07AFCFE
:1038E00046F8305D0A493046FEF7BEF9029B386063
:1038F0007B60304602940194FDF72AFB38460EB0F7
:10390000BDE8F08140A0020866A10208489E0208B6
:10391000F49402082DE9F04100248EB007465020AF
:10392000CDE9014402F0AEFD0646184B18494FF0B0
:1039300001080546C0E9018846F80C3B08A8FDF7D8
:10394000B3F903A8CDE90344CDE905840794FCF756
:103950001AFD03AA08A930460EAEFFF733FE0D4B41
:10396000EB6008A80AF036FC46F8305D0A4930469C
:10397000FEF77AF9029B38607B603046029401942E
:10398000FDF7E6FA38460EB0BDE8F0815CA002080B
:103990003DA10208649E0208F4940208F0B50024D8
:1039A0008FB007465020CDE9014402F06BFD0123A2
:1039B0000646C0E90133164B46F80C3B054615494F
:1039C00008A8FDF771F9C82303A8CDE90634CDE9AD
:1039D00003440594FCF7D7FC03AA08A930460EAEB1
:1039E000FFF7F0FD0C4BEB6008A80AF0F3FB46F87C
:1039F000305D0A493046FEF737F9029B38607B603C
:103A0000304602940194FDF7A3FA38460FB0F0BD9A
:103A100078A0020847A10208809E0208F4940208D8
:103A20002DE9F04100248EB007465020CDE9014435
:103A300002F028FD0646184B18494FF001080546CC
:103A4000C0E9018846F80C3B08A8FDF72DF903A84A
:103A5000CDE90344CDE905840794FCF794FC03AA5F
:103A600008A930460EAEFFF7ADFD0D4BEB6008A880
:103A70000AF0B0FB46F8305D0A493046FEF7F4F82C
:103A8000029B38607B60304602940194FDF760FA37
:103A900038460EB0BDE8F08194A0020851A102089A
:103AA0009C9E0208F4940208F0B500248FB00746EB
:103AB0005020CDE9014402F0E5FC01230646C0E9AF
:103AC0000133164B46F80C3B0546154908A8FDF78F
:103AD000EBF8C82303A8CDE90634CDE903440594E7
:103AE000FCF751FC03AA08A930460EAEFFF76AFDA9
:103AF0000C4BEB6008A80AF06DFB46F8305D0A49F4
:103B00003046FEF7B1F8029B38607B603046029485
:103B10000194FDF71DFA38460FB0F0BDB0A00208C1
:103B20005BA10208B89E0208F49402082DE9F04156
:103B300000248EB007465020CDE9014402F0A2FCDB
:103B40000646184B18494FF001080546C0E90188A0
:103B500046F80C3B08A8FDF7A7F803A8CDE90344F5
:103B6000CDE905840794FCF70EFC03AA08A93046AA
:103B70000EAEFFF727FD0D4BEB6008A80AF02AFBFD
:103B800046F8305D0A493046FEF76EF8029B386011
:103B90007B60304602940194FDF7DAF938460EB0A6
:103BA000BDE8F081CCA0020865A10208D49E0208FD
:103BB000F494020810B5044B044640F8183B0AF090
:103BC00009FB204610BD00BFA09D020810B5034BA5
:103BD00003600446FFF7EEFF204610BD0C9F02086D
:103BE00010B50446FFF7F2FF204602F05CFC2046C9
:103BF00010BD000010B5034B03600446FFF7DAFF69
:103C0000204610BDF09E020810B50446FFF7F2FFF3
:103C1000204602F048FC204610BD000010B5034BC2
:103C200003600446FFF7C6FF204610BDD49E02087D
:103C300010B50446FFF7F2FF204602F034FC2046A0
:103C400010BD000010B5034B03600446FFF7B2FF40
:103C5000204610BDB89E020810B50446FFF7F2FFDB
:103C6000204602F020FC204610BD000010B5034B9A
:103C700003600446FFF79EFF204610BD9C9E02088D
:103C800010B50446FFF7F2FF204602F00CFC204678
:103C900010BD000010B5034B03600446FFF78AFF18
:103CA000204610BD809E020810B50446FFF7F2FFC3
:103CB000204602F0F8FB204610BD000010B5034B73
:103CC00003600446FFF776FF204610BD649E02089D
:103CD00010B50446FFF7F2FF204602F0E4FB204651
:103CE00010BD000010B5034B03600446FFF762FFF0
:103CF000204610BD489E020810B50446FFF7F2FFAB
:103D0000204602F0D0FB204610BD000010B5034B4A
:103D100003600446FFF74EFF204610BD2C9E0208AC
:103D200010B50446FFF7F2FF204602F0BCFB204628
:103D300010BD000010B5034B03600446FFF73AFFC7
:103D4000204610BD109E020810B50446FFF7F2FF92
:103D5000204602F0A8FB204610BD000010B5034B22
:103D600003600446FFF726FF204610BDF49D0208BD
:103D700010B50446FFF7F2FF204602F094FB204600
:103D800010BD000010B5034B03600446FFF712FF9F
:103D9000204610BDD89D020810B50446FFF7F2FF7B
:103DA000204602F080FB204610BD000010B5034BFA
:103DB00003600446FFF7FEFE204610BDBC9D0208CE
:103DC00010B50446FFF7F2FF204602F06CFB2046D8
:103DD00010BD10B50446FFF7EDFE204602F063FB70
:103DE000204610BD38B504460D46FDF785F920463E
:103DF000084B40F8183B29460AF0E2FD0023C4E9CD
:103E00000C33C4E90E33236404F13000FCF7BBFA31
:103E1000204638BDA09D0208F0B5074689B00026AF
:103E20005020CDE9006602F02DFB01230546C0E9D4
:103E30000133114B45F80C3B0446104902A8FCF72E
:103E400033FF02A9284608ADFFF7CCFF0C4BE36017
:103E500002A80AF0BFF945F81C4D0A492846FDF7AB
:103E600003FF019B38607B60284601960096FDF7B2
:103E70006FF8384609B0F0BDE8A002089FA102081B
:103E8000F09E0208F4940208F0B5074689B00026B7
:103E90005020CDE9006602F0F5FA01230546C0E99D
:103EA0000133114B45F80C3B0446104902A8FCF7BE
:103EB000FBFE02A9284608ADFFF794FF0C4BE36018
:103EC00002A80AF087F945F81C4D0A492846FDF773
:103ED000CBFE019B38607B60284601960096FDF77B
:103EE00037F8384609B0F0BD04A10208A6A10208BF
:103EF0000C9F0208F49402082DE9F04FC248ADF57A
:103F00000B7D1DF0ABFBC1481DF0A8FB0BA8FFF714
:103F1000B5F90DA8FFF7A8FA0DF5927BBC481DF086
:103F20009DFB0BA95846FDF7CDF80DF1BC090DA975
:103F30004BA8FDF7C7F85EAE02230BA948462E93A7
:103F40004FF0010ACDF8B4B0FDF7BCF80BA930462C
:103F50003BAFCDF8C490CDF8C8A0FDF7B3F80DA9DC
:103F600060A8FDF7AFF836AC0DA9384641ADC4E9FD
:103F7000006AFDF7A7F84820C5E9007A02F082FA46
:103F8000079095E8030003AB83E8030094E803007F
:103F900001AB83E80300329B00930DF1B40898E86D
:103FA0000600319B0798FEF787FC079B0F931020B4
:103FB0000023109302F066FA964B0360079BC360E0
:103FC000C0E901AA10903CA8FCF7C2FF3046FCF7FC
:103FD000CBFF30A8FCF7BCFF4CA8FCF7B9FF4AA800
:103FE000FCF7B6FF8C481DF039FB11A8FFF700FB6A
:103FF00013A8FFF73FFB15A8FFF780FB17A8FFF7F3
:10400000BFFB19A8FFF700FC1BA8FFF73FFC1DA88A
:10401000FFF780FC1FA8FFF7C1FC21A8FFF700FDF8
:1040200023A8FFF741FD25A8FFF780FD27A8FFF78C
:10403000F3FE29A8FFF728FF78481DF00FFB31A8F1
:10404000FCF710FB0F9B2B9310A92CA8FCF7A0FFEB
:104050000BAA11A93046FDF73FF80BAA13A962A8D5
:10406000FDF73AF80BAA15A966A8FDF735F80BAAD3
:1040700017A96AA8FDF730F80BAA19A96EA8FDF7D1
:104080002BF80BAA1BA972A8FDF726F80BAA1DA9ED
:1040900076A8FDF721F80BAA1FA97AA8FDF71CF84E
:1040A0000BAA21A97EA8FDF717F80BAA23A982A8BD
:1040B000FDF712F80BAA25A986A8FDF70DF80B232A
:1040C000C8F80430C8F8006009AB98E8060020463C
:1040D000FDF7A4FE0DAA27A92846FCF7FDFF0DAAAF
:1040E00029A945A8FCF7F8FF0223C9F80430C9F84C
:1040F000005099E806000AAB3846FDF78FFE3B46B4
:1041000022462BA95846FEF783F93846FCF7A8FF4C
:1041100045A8FCF733FF2846FCF730FF2046FCF7A4
:104120009FFF0DF506780DF5B4794046A8F110080B
:10413000FCF724FFC145F8D12CA8FCF709FF4FF08C
:1041400000081E232046C4E90083C4E90288C4F89D
:104150001080FCF718F921463846FCF737FA304A48
:10416000414638460AF00EFB014628460AF026F979
:104170002C4928460AF052FB014630460AF01EF947
:104180005E981DF0B9F930460AF024F828460AF086
:1041900021F838460AF01EF8224659463046FEF706
:1041A00053FF31462046FCF79FF855A8FCF758FF0F
:1041B00052A8FCF755FF51A8FCF7CAFE4FA8FCF720
:1041C000C7FE2AA8FCF7C4FE28A8FCF7C1FE26A853
:1041D000FCF7BEFE24A8FCF7BBFE22A8FCF7B8FE45
:1041E00020A8FCF7B5FE1EA8FCF7B2FE1CA8FCF741
:1041F000AFFE1AA8FCF7ACFE18A8FCF7A9FE16A89B
:10420000FCF7A6FE14A80FE088A20208ABA20208E1
:10421000C7A20208289F0208E4A2020800A302081D
:1042200012A3020846A20208FCF792FE12A8FCF7AD
:104230008FFE10A8FCF78CFE0EA8FCF789FE0CA8D8
:10424000FCF786FE40460DF50B7DBDE8F08F00BF04
:10425000F7B502AB03E906000023C0E90033836031
:10426000019B0F4A009E3C245C430546A01042433C
:1042700006EB040708D00B4B9A4201D90AF022FD45
:10428000204602F0FFF8024614442A60AC6039462A
:104290003046FEF77FFC6860284603B0F0BD00BFE3
:1042A000EFEEEEEE444444042DE9F04191F8A071A4
:1042B000032FA0B004464FD0042F22D0012F40F08E
:1042C0001E8120AE0A230D93C82346F8443D11AD4C
:1042D00033460DAA01F5D278284601F5C471FCF7E2
:1042E000C5FD29464046FEF773FC2846FCF7DFFE75
:1042F00041462846FCF75DFECDE90357334603AA45
:104300001FE020AE0A230D93C92346F8443D11ADAA
:1043100033460DAA01F5F077284601F5B871FCF790
:10432000A5FD29463846FEF753FC2846FCF7BFFE9C
:1043300039462846FCF73DFE01230293019533469A
:1043400001AA06CA2046FFF783FF2846FCF7AFFE06
:10435000204620B0BDE8F081D1F84432013B052B66
:1043600000F2CD80DFE803F00324446586A920AE87
:104370000B230D93002346F8443D11AD33460DAA9F
:1043800001F5D277284601F5B871FCF76FFD294693
:104390003846FEF71DFC2846FCF789FE39462846BC
:1043A000FCF707FE012306930595334605AAC8E7E7
:1043B00020AE012746F8447D11AD0B230DAA01F56F
:1043C000D2780D9301F5B87133462846FCF74EFDBF
:1043D00029464046FEF7FCFB2846FCF768FE4146AE
:1043E0002846FCF7E6FDCDE90757334607AAA8E7BC
:1043F00020AE0B230D93022346F8443D11AD334606
:104400000DAA01F5D277284601F5B871FCF72EFD0B
:1044100029463846FEF7DCFB2846FCF748FE3946BD
:104420002846FCF7C6FD01230A930995334609AADD
:1044300087E720AE0B230D93032346F8443D11ADCF
:1044400033460DAA01F5D277284601F5B871FCF77D
:104450000DFD29463846FEF7BBFB2846FCF727FE34
:1044600039462846FCF7A5FD01230C930B953346EE
:104470000BAA66E720AE0B230D93042346F8443DB8
:1044800011AD0DAF33463A4601F5D278284601F515
:10449000B871FCF7EBFC29464046FEF799FB28462D
:1044A000FCF705FE41462846FCF783FD01230E93E9
:1044B0000D95334697E8060044E720AE0B230D9395
:1044C000002346F8443D11AD33460DAA01F5D277DD
:1044D000284601F5B871FCF7C9FC29463846FEF7B5
:1044E00077FB2846FCF7E3FD39462846FCF761FDDB
:1044F000012310930F950DAB96E8060022E70023E9
:10450000C4E90033A36023E72DE9F04F91F8F4707C
:10451000022FA5B006460C4646D10DF190080C239B
:1045200048F8803D06AD434602AA01F1F80A4FF073
:104530000A0B98312846CDF808B0FCF797FC2946BD
:104540005046FEF745FB2846FCF7B1FD0C2302AAB6
:1045500004F59A79049304F1800143462846CDF886
:1045600008B0FCF783FC29464846FEF731FB284695
:10457000FCF79DFD51462846FCF71BFD494615A852
:10458000FCF717FDCDE900576A4606CA4346304698
:10459000FFF75EFE15A8FCF78AFD2846FCF787FDAD
:1045A000304625B0BDE8F08F032F3CD124AF0D235A
:1045B00047F8803D06AD0DF108083B46424601F143
:1045C000F80A4FF00A0B98312846CDF808B0FCF7EE
:1045D0004DFC29465046FEF7FBFA2846FCF767FDDE
:1045E0000D23424604F59A79049304F180013B4679
:1045F0002846CDF808B0FCF739FC29464846FEF7B6
:10460000E7FA2846FCF753FD51462846FCF7D1FC53
:10461000494615A8FCF7CDFC0223039302953B46BF
:1046200098E80600B3E7043F022F3BD824AF4FF0D1
:104630000E0A47F880AD06AD3B4602AA01F1F80923
:104640004FF00A0B98312846CDF808B0FCF70EFC65
:1046500029464846FEF7BCFA2846FCF728FD04F533
:104660009A783B4602AA04F180012846CDF808B0AA
:10467000CDF810A0FCF7FAFB29464046FEF7A8FA51
:104680002846FCF714FD49462846FCF792FC4146B3
:1046900015A8FCF78EFC02230593049502AB97E85E
:1046A000060074E70023C0E90033836078E7000068
:1046B00010B51D4C88B0204602F05CFB1B4A1C491B
:1046C000204601F05DFF2D211A48FCF7ACFB1321B9
:1046D0001948FCF7A8FB0A211848FCF7A4FB1A218B
:1046E0001748FCF7A0FB02211648FCF79CFB0821A9
:1046F0001548FCF798FB10231522CDE9063204215A
:104700000123CDE9043100200523CDE90230162430
:104710000623CDE900342722072309210B4800F0A6
:104720004BF808B010BD00BFD00400209801002055
:104730008D6E0008E005002090050020A0050020F7
:10474000B0050020C0050020D0050020D4040020C2
:104750004FF06043D3F8802ED10708D5D3F8002E50
:10476000D20704D51A68002AFCD0C2B21A7070476A
:1047700010B50446FBF770FD013C14F8010F10B1B1
:10478000FFF7E6FFF9E7BDE81040FBF775BD83686A
:104790001A6843681A4214BF01200020704738B5D8
:1047A000102204460D4600211BF015FD2046294627
:1047B00001F04FFD204638BDF8B504460F469DF97F
:1047C000241015461E46FCF72EFB9DF9281004F117
:1047D0001000FCF728FB9DF92C1004F12000FCF7D9
:1047E00022FB9DF9301004F13000FCF71CFB9DF911
:1047F000341004F14000FCF716FB394604F1500078
:1048000000F068F9314604F16400FFF7C8FF29465B
:1048100004F17400FFF7C3FF9DF9181004F1840040
:1048200000F058F99DF9201004F19800FFF7B7FF48
:104830009DF91C1004F1A800FFF7B1FF2046F8BD58
:1048400007EE901AF5EEC07AF1EE10FA10B50446B4
:1048500000F1500006DB00F069F8A36E226F1B0424
:10486000136010BDB7EE007A77EE877A17EE901AD4
:1048700000F05CF8236FA26E1A60F2E707EE901A60
:10488000F5EEC07AF1EE10FA10B5044600F184009E
:1048900008DB00F04BF8D4F89C30D4F8A4201B04BB
:1048A000136010BDB7EE007A77EE877A17EE901A94
:1048B00000F03CF8D4F8A430D4F89C201A60F0E75B
:1048C000D0F88030826F1A607047D0F8B430D0F8DA
:1048D000AC201A6070472030FFF759BFDFF830D0A6
:1048E000002103E00B4B5B58435004310A480B4B4B
:1048F00042189A42F6D30A4A02E0002342F8043BE7
:10490000084B9A42F9D301F0B3FBFBF765FC704703
:1049100000000220F0E9020898010020880400202D
:1049200088040020601E0020FEE7000030B507EE7E
:10493000101A244B02681A60B5EEC07AF1EE10FA34
:1049400089B025D4F7EE007AB4EE677AF1EE10FA6A
:10495000C8BFB0EE677AD0ED027AF8EE677A6022CF
:1049600067EE877AFCEEE77A17EE903ACDE90123FD
:104970000023CDE90333CDE905330793037CC0ED74
:10498000037A013B032B12D8DFE803F01705131558
:104990009FED0D7ADFE70424457C0A4801A92246F1
:1049A00001F062F9214607484DB100F003FC09B05F
:1049B00030BD0824F0E70C24EEE70024ECE701F01A
:1049C000D7F9F4E7F0050020000000008368ABB1E0
:1049D00007EE903AD0ED036AB8EE677AF8EE666AB1
:1049E000C6EE877AB7EE007AF4EE477AF1EE10FA67
:1049F000C8BFF0EE477A17EE900A7047DFED017AF4
:104A0000F9E700BF00000000F0B52E4C02682260FC
:104A100087B00E460546FFF7D9FF116A41F2111320
:104A20001942074608D1116A40F24443194202BFB5
:104A3000136823F00103136001F05EFA694601A8D0
:104A400000F0DAFE2B68204A93421BD00FD8A2F563
:104A50007C42934206D002F58062934202D0B3F1C9
:104A6000804F2DD100F098FE049900900EE0174A77
:104A7000934207D002F58062934203D0A2F5006210
:104A800093421DD100F0A0FE05990090731EE360D3
:104A90000F4A009B01B95B00B3FBF2F3013B63607B
:104AA000084800232361A36001F098F8394628469E
:104AB000FFF73CFF2268AE60136843F00103136008
:104AC00007B0F0BDF00500200000014000440140A7
:104AD00040420F0030B50D46044689B04349284690
:104AE00001F052FB41492060284601F069FBC0F308
:104AF000C32323742368C0F3C0300133607402D130
:104B00003B4801F0F5FA23683A4A934218D102F57E
:104B10009C32516C41F001015164526C02F001026F
:104B20000192019A344A934226D1344B5A6C42F492
:104B300000325A645B6C03F400330693069B36E044
:104B4000B3F1804F0AD12D4A116C41F0010111647B
:104B5000126C02F001020292029AE3E7284A9342A1
:104B600018D102F50D32116C41F002011164126C82
:104B700002F002020392039A224A934217D11F4B7A
:104B80005A6C42F480225A645B6C03F480230793CE
:104B9000079B0CE01C4A934219D1184B1A6C42F047
:104BA00004021A641B6C03F004030493049B0F4972
:104BB000284601F0ADFA002344F620612046257115
:104BC000C4E9023309B0BDE83040FFF71DBF0F4A0A
:104BD0009342A7D1094B5A6C42F480325A645B6C01
:104BE00003F480330593059BE1E700BFB4A30208FB
:104BF0003BA302080000014000440140003802408D
:104C0000000400400048014000080040004001400E
:104C10000E4B02681A6082685A60C2689A60026924
:104C2000DA6042691A6100229A6190F91920013212
:104C300004D1082205485A6100F073BA90F918208F
:104C400001320CBF04220C22F4E700BF2C06002026
:104C5000F0B50E4685B0044639493046154601F098
:104C600093FA38490746284601F08EFA014638463D
:104C700001F06CFA344B2060984213D003F5806346
:104C8000984251D0A3F55043984217D12F4B1A6C3C
:104C900042F400321A641B6C03F400330293029B4B
:104CA00001230AE0294B5A6C42F010025A645B6CF3
:104CB00003F010030193019B0023636020493046F9
:104CC00001F026FA28461F4901F022FA701C03D091
:104CD0000121304600F0FAF8691C03D00121284672
:104CE00000F0F4F800234FF41652C4E90223C4E99B
:104CF0000433267665762046FFF78AFF2268144B38
:104D00009A420FD1134B01221A60134B04F118057C
:104D1000206861681A4603C20834AC421346F7D1D2
:104D20002068106005B0F0BD084B5A6C42F02002BC
:104D30005A645B6C03F020030393039B0523BCE7D9
:104D400070A502081CA502080010014000380240AE
:104D500000440040880600206C0600200368034AD7
:104D600018681360C0F34010704700BF2C06002085
:104D700010B5046801460846FFF7F0FF0028FAD096
:104D80006068C0F3080010BD0368034A1868136028
:104D9000C0F3C010704700BF2C06002038B505686E
:104DA00004462046FFF7F0FF0028FAD0C1F30801BF
:104DB000696038BD7FB507284FD8DFE800F00412DE
:104DC0001E2A364E4E42274B27481A6B42F00102EC
:104DD0001A631B6B03F001030093009B07B05DF89F
:104DE00004FB204B21481A6B42F002021A631B6B32
:104DF00003F002030193019BF0E71A4B1C481A6B66
:104E000042F004021A631B6B03F004030293029B3B
:104E1000E4E7144B17481A6B42F008021A631B6B45
:104E200003F008030393039BD8E70E4B12481A6B59
:104E300042F010021A631B6B03F010030493049BEF
:104E4000CCE7084B0D481A6B42F080021A631B6BCB
:104E500003F080030593059BC0E7094801F048F97A
:104E60000020BBE70038024000000240000402407E
:104E700000080240000C024000100240001C0240EA
:104E80005DA3020830B5054687B0C0F303100C4699
:104E900005F00F05FFF78EFF012304F00F0203FA60
:104EA00005F5094B019553F822300293C4F3021320
:104EB0000393C4F3C314032301A90493059400F0DE
:104EC000B9FC07B030BD00BF80A3020838B500F0C0
:104ED0000F05C0F303100C46FFF76CFF6900C368B1
:104EE00003228A4023EA0203032CC360C36828BF5D
:104EF00000248C401C43C46038BD0000054B18687A
:104F000030B901221A60044B044A1A6000F086BFCF
:104F1000704700BFC80600208C060020000C00402F
:104F200008B5044B1B680BB9FFF7E8FF024B586A42
:104F300008BD00BFC8060020000C0040034B1B68E2
:104F40005863DA6842F00202DA6070478C0600208B
:104F5000034B1A68D36823F00203D360704700BF85
:104F60008C060020024B1B686FF002021A6170472A
:104F70008C06002010B50021044604F00F04FFF752
:104F800081FF0120A04010BD70B504464B1C0E46A9
:104F900021700DD0C1F30310FFF70CFF054630461A
:104FA000FFF7E8FF05F1100318356060A360E560C6
:104FB00070BD90F90000FFF789BF012990F900004A
:104FC00018BF0021FFF75EBF08B500F095FFBDE8F0
:104FD000084000F0FFBC00000368C1681A692DE9B1
:104FE000F04122F4405204460A431A612569A2683E
:104FF000D968C0692A43656921F416412A4321F022
:105000000C0102430A43DA605A69A16922F4407232
:105010000A43B0F5004F5A613F4A46D1934203D04C
:1050200002F58062934229D100F0CEFB6668192513
:1050300005FB00F376006427B3FBF6F3B3FBF7F34D
:105040001E0100F0C1FB636868435B00B0FBF3F82E
:1050500000F0BAFB6368226868435B00B0FBF3F3BF
:10506000B3FBF7F307FB13831B013233B3FBF7F3F7
:1050700003F00F0333439360BDE8F08100F08CFB35
:105080006668192505FB00F376006427B3FBF6F389
:10509000B3FBF7F31E0100F07FFB636868435B001E
:1050A000B0FBF3F800F078FBD4E7934202D01B4A40
:1050B00093421AD100F088FB6668192505FB00F3BE
:1050C000B6006427B3FBF6F3B3FBF7F31E0100F061
:1050D0007BFB636868439B00B0FBF3F800F074FB54
:1050E0006368226868439B00B8E700F055FB666878
:1050F000192505FB00F3B6006427B3FBF6F3B3FBF9
:10510000F7F31E0100F048FB636868439B00B0FBA7
:10511000F3F800F041FBE3E7001001400014014008
:10512000704710B5044630B390F8393003F0FF02F1
:105130001BB980F83820FFF7F3FF2268022384F8B8
:105140003930D36823F40053D3602046FFF744FF7F
:1051500023681A6922F490421A615A6922F02A02DD
:105160005A61DA6842F40052DA6000200123E063F9
:1051700084F8393010BD0120FCE7036A10B504241F
:105180008C4023EA04030362036A8A401A430262E2
:1051900010BD10B5044604220068FFF7EEFF236837
:1051A0005A6C42F400425A641A6842F001021A60D2
:1051B000002010BDFFF7EDBF03682DE9F341DF07C5
:1051C000044643D423689E0700F18F8023681A07A2
:1051D00000F1DE8023685B0732D5914B914D1A6C4C
:1051E00042F080521A641B6C03F080530193019BC0
:1051F0002B6843F480732B6000F00EFC06462B688E
:10520000D90540F1E780884D854E00232B7000F0D2
:1052100003FC41F288380746336F9A0700F1E180BA
:10522000237A2B70A368002B00F0E98000F0F4FBD8
:105230007B4D064641F288372B6F9B0740F1D880A3
:10524000A269002A40F0F880002015E0744B9A68AB
:1052500002F00C02042A07D09A6802F00C02082A15
:105260000DD15B685D020AD56D4B1B689803A9D50B
:105270006368002BA6D1012002B0BDE8F0816B4D20
:10528000674E00232B7000F0C7FB41F288380746B9
:105290003368990312D423792B706368ABB100F0A3
:1052A000BBFB5F4D064641F288372B689A0389D4D1
:1052B00000F0B2FB801BB842F7D904E000F0ACFB71
:1052C000C01B4045E4D90320D6E700F0A5FB544DB0
:1052D000064641F288372B689B037FF573AF00F0D9
:1052E0009BFB801BB842F6D9EDE74D4B9A6812F054
:1052F0000C0F07D09A6802F00C02082A18D15B68DC
:105300005E0215D4464A13689D0702D5E368012B57
:10531000B1D11168F82393FAA3F3B3FA83F32069A8
:10532000DBB200FA03F321F0F8010B4313604DE701
:10533000E2683F4BEAB101221A6000F06DFB384D84
:1053400006462B6898070ED52A68F82393FAA3F32C
:10535000B3FA83F32169DBB201FA03F322F0F80216
:1053600013432B6032E700F057FB801B6428E8D919
:10537000A9E71A6000F050FB294D06462B689907F3
:105380007FF524AF00F048FB801B6428F6D99AE72C
:105390006269284B7AB101221A6000F03DFB204D72
:1053A00006466B6F9F073FF515AF00F035FB801B7E
:1053B0006428F6D987E71A6000F02EFB184D0646E0
:1053C0006B6F98077FF506AF00F026FB801B642803
:1053D000F6D978E700F020FB801B64287FF60FAF3A
:1053E00071E700F019FBC01B40457FF615AF6AE777
:1053F00000F012FB801BB8427FF61EAF63E700F09F
:105400000BFB074D064641F288372B6F98077FF557
:1054100017AF00F001FB801BB842F6D953E700BF7D
:1054200000380240007000407038024002380240EC
:1054300000004742800E47422C4DAB6803F00C033E
:10544000082B3FF418AF2A4E0023022A336040D1C4
:1054500000F0E2FA07462B68990134D447F6C07190
:1054600091FAA1F1B1FA81F14FF4403797FAA7F719
:10547000B7FA87F74FF0706090FAA0F0B0FA80F0BA
:10548000D4E907321343626AC9B202FA01F1A26A8F
:1054900052080B43013AF9B28A401343E26A134CB3
:1054A000C1B28A4013436B600123336000F0B4FA49
:1054B000054623689A013FF5C7AE00F0ADFA401BE0
:1054C0006428F6D9FFE600F0A7FAC01B6428C2D909
:1054D000F9E600F0A1FA04462B689B017FF5B4AE13
:1054E00000F09AFA001B6428F6D9ECE60038024076
:1054F000600047427A4B1A6802F00F028A422DE997
:10550000F04105460E467AD2CAB21A701B6803F003
:105510000F038B4202D00120BDE8F081026896079C
:1055200006D5704980688B6823F0F00303438B60D5
:10553000D40712D42A68500700F1C980130707D591
:10554000684A2969936823F4604343EAC10393607E
:105550000F2000F063FC0020DEE76A68614B012A3F
:105560001DD11B6813F4003FD5D05E4CA36823F017
:1055700003031343A36000F04FFA6B68012B064648
:1055800017D141F28837A36803F00C03042BD1D064
:1055900000F042FA801BB842F5D90320BCE7911E07
:1055A00001291B6802D813F0007FDDE713F0020F1A
:1055B000DAE7022B0CD141F28837A36803F00C0321
:1055C000082BB7D000F028FA801BB842F5D9E4E7E1
:1055D000032B0BD041F28837A36813F00C0FA9D02E
:1055E00000F01AFA801BB842F6D9D6E741F28835A6
:1055F000A36800F011FA801BA842F9D9CDE7026830
:10560000910706D5374980688B6823F0F003034380
:105610008B60D20709D4324BF2B21A701B6803F0C8
:105620000F03B3427FF477AF84E76A682D4B012AFA
:105630001DD11B6813F4003F3FF46DAF294CA368E4
:1056400023F003031343A36000F0E6F96B68012B1A
:10565000074616D141F28838A36803F00C03042BE7
:10566000D9D000F0D9F9C01B4045F5D995E7911E76
:1056700001291B6802D813F0007FDDE713F0020F49
:10568000DAE7022B0CD141F28838A36803F00C034F
:10569000082BC0D000F0C0F9C01B4045F5D97CE70D
:1056A000032B0BD041F28838A36813F00C0FB2D053
:1056B00000F0B2F9C01B4045F6D96EE741F28835DB
:1056C000A36800F0A9F9C01BA842F9D965E705490C
:1056D000E8688B6823F4E05303438B602EE700BF38
:1056E000003C0240003802401A4A936803F00C0361
:1056F000042B10B503D0082B03D0174800E017483F
:1057000010BD5168536801F03F0113F4800F47F654
:10571000C074536894FAA4F0B0FA80F0C0B203EAFF
:10572000040323FA00F314BF0C480B48B0FBF1F05C
:105730005843084B4FF440325B6892FAA2F2B2FA37
:1057400082F203F44033D2B2D34001335B00B0FBAA
:10575000F3F0D5E7003802400024F40000127A008C
:1057600008B5FFF7C1FF094B9A68F02393FAA3F33A
:10577000B3FA83F302F0F002DBB222FA03F3044A35
:10578000D35CD840034B186008BD00BF003802400E
:10579000C4A50208A001002008B5FFF7E1FF084BEF
:1057A0009A684FF4E05393FAA3F3B3FA83F302F445
:1057B000E052DBB222FA03F3024AD35CD84008BDC0
:1057C00000380240C4A5020808B5FFF7C9FF084B1E
:1057D0009A684FF4604393FAA3F3B3FA83F302F4A5
:1057E0006042DBB222FA03F3024AD35CD84008BD20
:1057F00000380240C4A502080F2303600B4B9A68CF
:1058000002F0030242609A6802F0F00282609A6835
:1058100002F4E052C2609B68DB0803F4E0530361CA
:10582000034B1B6803F00F030B6070470038024006
:10583000003C02402DE9F04F85B00B68DFF8908105
:10584000614A01934FF001090023019C09FA03F713
:1058500004EA0706B74240F0A8804C6824F0100A1A
:10586000BAF1020F16D14FEAD30E00EB8E0E03F001
:10587000070BDEF820504FEA8B0B4FF00F0C0CFAA1
:105880000BFC25EA0C0C0D6905FA0BF545EA0C0535
:10589000CEF820504FEA430E0325D0F800B005FAA9
:1058A0000EF5ED4304F0030C05EA0B0B0CFA0EFCAD
:1058B0000AF1FF3A4CEA0B0CBAF1010F0095C0F85F
:1058C00000C015D8D0F808C005EA0C0CCD6805FA60
:1058D0000EFA4AEA0C0CC0F808C0D0F804C02CEA52
:1058E0000707C4F3001C0CFA03FC4CEA07074760E7
:1058F000C768009D3D408F6807FA0EF73D43C560BD
:10590000E50052D5D8F8445045F48045C8F84450D5
:10591000D8F8445023F0030707F1804705F4804589
:1059200007F59C37039503F0030E039DBD684FEA0E
:105930008E0E4FF00F0C0CFA0EFC25EA0C0C234DCA
:10594000A84239D005F58065A84237D005F58065B5
:10595000A84235D005F58065A84233D005F58065AD
:10596000A84214BF0525042505FA0EF545EA0C05E5
:10597000BD601568F74314F4803F0CBF3D403543CC
:105980001560556814F4003F0CBF3D403543556029
:10599000956814F4801F0CBF3D4035439560D56871
:1059A000A40254BF3D403543D5600133102B7FF432
:1059B0004CAF05B0BDE8F08F0025D5E70125D3E752
:1059C0000225D1E70325CFE7003C0140000002405B
:1059D0000038024008B50B4B1A6842F400721A6096
:1059E0001A6842F480621A601A6842F480721A607F
:1059F000032000F0BFF90F2000F010FA00F012F8B9
:105A0000002008BD003C0240024A136801331360C5
:105A1000704700BFCC060020014B1868704700BFDC
:105A2000CC06002070470000036A23F001030362E4
:105A3000036A70B5446882690D6822F073022A43D4
:105A40008D6823F002032B430A4DA8420BD1CD6889
:105A500023F008032B43D1E9055624F44074354361
:105A600023F004032C43446082614A68426303626A
:105A700070BD00BF00000140036A23F4807303621D
:105A8000036A70B54468C2690D6822F073022A4344
:105A90008D6823F4007343EA05230B4DA8420DD112
:105AA000CD6823F4006343EA0523D1E9055624F4C5
:105AB0004054354323F4806344EA05144460C261D2
:105AC0004A68C263036270BD00000140036A23F4A8
:105AD00080530362036A30B54468C2690D6822F4DA
